{
  "abi": [
    {
      "inputs": [
        {
          "internalType": "address",
          "name": "_impl",
          "type": "address"
        }
      ],
      "stateMutability": "nonpayable",
      "type": "constructor"
    },
    {
      "stateMutability": "payable",
      "type": "fallback"
    },
    {
      "inputs": [],
      "name": "getTimestamp",
      "outputs": [
        {
          "internalType": "uint256",
          "name": "",
          "type": "uint256"
        }
      ],
      "stateMutability": "view",
      "type": "function"
    },
    {
      "inputs": [
        {
          "internalType": "address",
          "name": "newImplementation",
          "type": "address"
        }
      ],
      "name": "upgradeTo",
      "outputs": [],
      "stateMutability": "nonpayable",
      "type": "function"
    },
    {
      "inputs": [
        {
          "internalType": "address",
          "name": "newImplementation",
          "type": "address"
        },
        {
          "internalType": "bytes",
          "name": "data",
          "type": "bytes"
        }
      ],
      "name": "upgradeToAndCall",
      "outputs": [],
      "stateMutability": "nonpayable",
      "type": "function"
    },
    {
      "stateMutability": "payable",
      "type": "receive"
    }
  ],
  "bytecode": {
    "object": "0x608060405234801561001057600080fd5b5060405161038038038061038083398101604081905261002f91610054565b600080546001600160a01b0319166001600160a01b0392909216919091179055610084565b60006020828403121561006657600080fd5b81516001600160a01b038116811461007d57600080fd5b9392505050565b6102ed806100936000396000f3fe6080604052600436106100385760003560e01c8063188ec356146100565780633659cfe6146100765780634f1ef286146100965761003f565b3661003f57005b600054610054906001600160a01b03166100b6565b005b34801561006257600080fd5b504260405190815260200160405180910390f35b34801561008257600080fd5b5061005461009136600461018e565b6100df565b3480156100a257600080fd5b506100546100b13660046101c6565b610101565b3660008037600080366000845af43d6000803e8080156100d5573d6000f35b3d6000fd5b505050565b600080546001600160a01b0319166001600160a01b0392909216919091179055565b61010a826100df565b6000826001600160a01b0316826040516101249190610288565b600060405180830381855af49150503d806000811461015f576040519150601f19603f3d011682016040523d82523d6000602084013e610164565b606091505b50509050806100da57600080fd5b80356001600160a01b038116811461018957600080fd5b919050565b6000602082840312156101a057600080fd5b6101a982610172565b9392505050565b634e487b7160e01b600052604160045260246000fd5b600080604083850312156101d957600080fd5b6101e283610172565b9150602083013567ffffffffffffffff808211156101ff57600080fd5b818501915085601f83011261021357600080fd5b813581811115610225576102256101b0565b604051601f8201601f19908116603f0116810190838211818310171561024d5761024d6101b0565b8160405282815288602084870101111561026657600080fd5b8260208601602083013760006020848301015280955050505050509250929050565b6000825160005b818110156102a9576020818601810151858301520161028f565b50600092019182525091905056fea26469706673582212205337af30d5100c2786fa4c911b18af9e0f2f0516fc6f083a32b777c6d7e542ee64736f6c63430008110033",
    "linkReferences": {}
  },
  "methodIdentifiers": {
    "getTimestamp()": "188ec356",
    "upgradeTo(address)": "3659cfe6",
    "upgradeToAndCall(address,bytes)": "4f1ef286"
  },
  "id": 18
}