{
  "abi": [
    {
      "inputs": [
        {
          "internalType": "uint256",
          "name": "_alarm1",
          "type": "uint256"
        }
      ],
      "stateMutability": "nonpayable",
      "type": "constructor"
    },
    {
      "inputs": [],
      "name": "alarm1",
      "outputs": [
        {
          "internalType": "uint256",
          "name": "",
          "type": "uint256"
        }
      ],
      "stateMutability": "view",
      "type": "function"
    },
    {
      "inputs": [],
      "name": "alarm2",
      "outputs": [
        {
          "internalType": "uint256",
          "name": "",
          "type": "uint256"
        }
      ],
      "stateMutability": "view",
      "type": "function"
    },
    {
      "inputs": [
        {
          "internalType": "address",
          "name": "_newOwner",
          "type": "address"
        }
      ],
      "name": "changeOwner",
      "outputs": [],
      "stateMutability": "nonpayable",
      "type": "function"
    },
    {
      "inputs": [],
      "name": "getTimestamp",
      "outputs": [
        {
          "internalType": "uint256",
          "name": "",
          "type": "uint256"
        }
      ],
      "stateMutability": "view",
      "type": "function"
    },
    {
      "inputs": [],
      "name": "owner",
      "outputs": [
        {
          "internalType": "address",
          "name": "",
          "type": "address"
        }
      ],
      "stateMutability": "view",
      "type": "function"
    },
    {
      "inputs": [
        {
          "internalType": "uint256",
          "name": "_timestamp",
          "type": "uint256"
        }
      ],
      "name": "setAlarm1",
      "outputs": [],
      "stateMutability": "nonpayable",
      "type": "function"
    }
  ],
  "bytecode": {
    "object": "0x608060405234801561001057600080fd5b506040516101f23803806101f283398101604081905261002f91610049565b600080546001600160a01b03191633179055600155610062565b60006020828403121561005b57600080fd5b5051919050565b610181806100716000396000f3fe608060405234801561001057600080fd5b50600436106100625760003560e01c806306c24bd7146100675780631236c06914610083578063188ec3561461008c5780638da5cb5b14610092578063a6f9dae1146100bd578063e744bf4d146100ef575b600080fd5b61007060015481565b6040519081526020015b60405180910390f35b61007060025481565b42610070565b6000546100a5906001600160a01b031681565b6040516001600160a01b03909116815260200161007a565b6100ed6100cb366004610102565b600080546001600160a01b0319166001600160a01b0392909216919091179055565b005b6100ed6100fd366004610132565b600155565b60006020828403121561011457600080fd5b81356001600160a01b038116811461012b57600080fd5b9392505050565b60006020828403121561014457600080fd5b503591905056fea2646970667358221220dada1bfe7841f3d35b4e7c1ac71bd4ac4c55d6dbca142469f433b7eec466bda164736f6c63430008110033",
    "linkReferences": {}
  },
  "methodIdentifiers": {
    "alarm1()": "06c24bd7",
    "alarm2()": "1236c069",
    "changeOwner(address)": "a6f9dae1",
    "getTimestamp()": "188ec356",
    "owner()": "8da5cb5b",
    "setAlarm1(uint256)": "e744bf4d"
  },
  "id": 18
}