{
  "abi": [
    {
      "inputs": [],
      "name": "alarm1",
      "outputs": [
        {
          "internalType": "uint256",
          "name": "",
          "type": "uint256"
        }
      ],
      "stateMutability": "view",
      "type": "function"
    },
    {
      "inputs": [],
      "name": "alarm2",
      "outputs": [
        {
          "internalType": "uint256",
          "name": "",
          "type": "uint256"
        }
      ],
      "stateMutability": "view",
      "type": "function"
    },
    {
      "inputs": [
        {
          "internalType": "address",
          "name": "_newOwner",
          "type": "address"
        }
      ],
      "name": "changeOwner",
      "outputs": [],
      "stateMutability": "nonpayable",
      "type": "function"
    },
    {
      "inputs": [],
      "name": "getTimestamp",
      "outputs": [
        {
          "internalType": "uint256",
          "name": "",
          "type": "uint256"
        }
      ],
      "stateMutability": "view",
      "type": "function"
    },
    {
      "inputs": [
        {
          "internalType": "uint256",
          "name": "_alarm1",
          "type": "uint256"
        }
      ],
      "name": "initialize",
      "outputs": [],
      "stateMutability": "nonpayable",
      "type": "function"
    },
    {
      "inputs": [],
      "name": "owner",
      "outputs": [
        {
          "internalType": "address",
          "name": "",
          "type": "address"
        }
      ],
      "stateMutability": "view",
      "type": "function"
    },
    {
      "inputs": [
        {
          "internalType": "uint256",
          "name": "_timestamp",
          "type": "uint256"
        }
      ],
      "name": "setAlarm1",
      "outputs": [],
      "stateMutability": "nonpayable",
      "type": "function"
    }
  ],
  "bytecode": {
    "object": "0x608060405234801561001057600080fd5b5061019c806100206000396000f3fe608060405234801561001057600080fd5b506004361061007d5760003560e01c80638da5cb5b1161005b5780638da5cb5b146100ad578063a6f9dae1146100d8578063e744bf4d1461010a578063fe4b84df1461010a57600080fd5b806306c24bd7146100825780631236c0691461009e578063188ec356146100a7575b600080fd5b61008b60015481565b6040519081526020015b60405180910390f35b61008b60025481565b4261008b565b6000546100c0906001600160a01b031681565b6040516001600160a01b039091168152602001610095565b6101086100e636600461011d565b600080546001600160a01b0319166001600160a01b0392909216919091179055565b005b61010861011836600461014d565b600155565b60006020828403121561012f57600080fd5b81356001600160a01b038116811461014657600080fd5b9392505050565b60006020828403121561015f57600080fd5b503591905056fea26469706673582212206212583498c0febb962fd2e246c7a7430cb193f942489f82456829e6457c010264736f6c63430008110033",
    "linkReferences": {}
  },
  "methodIdentifiers": {
    "alarm1()": "06c24bd7",
    "alarm2()": "1236c069",
    "changeOwner(address)": "a6f9dae1",
    "getTimestamp()": "188ec356",
    "initialize(uint256)": "fe4b84df",
    "owner()": "8da5cb5b",
    "setAlarm1(uint256)": "e744bf4d"
  },
  "id": 19
}