{
  "abi": [
    {
      "inputs": [
        {
          "internalType": "address",
          "name": "_impl",
          "type": "address"
        }
      ],
      "stateMutability": "nonpayable",
      "type": "constructor"
    },
    {
      "stateMutability": "payable",
      "type": "fallback"
    },
    {
      "inputs": [],
      "name": "getTimestamp",
      "outputs": [
        {
          "internalType": "uint256",
          "name": "",
          "type": "uint256"
        }
      ],
      "stateMutability": "view",
      "type": "function"
    },
    {
      "stateMutability": "payable",
      "type": "receive"
    }
  ],
  "bytecode": {
    "object": "0x608060405234801561001057600080fd5b5060405161014438038061014483398101604081905261002f91610054565b600080546001600160a01b0319166001600160a01b0392909216919091179055610084565b60006020828403121561006657600080fd5b81516001600160a01b038116811461007d57600080fd5b9392505050565b60b2806100926000396000f3fe608060405260043610601f5760003560e01c8063188ec35614603a576025565b36602557005b6000546038906001600160a01b03166059565b005b348015604557600080fd5b504260405190815260200160405180910390f35b3660008037600080366000845af43d6000803e8080156077573d6000f35b3d6000fdfea2646970667358221220799f40e9d970ce45683d0f9f2be9893c3c6ae39a49e96056615258151e1bc45c64736f6c63430008110033",
    "linkReferences": {}
  },
  "methodIdentifiers": {
    "getTimestamp()": "188ec356"
  },
  "id": 17
}