{
  "abi": [
    {
      "inputs": [],
      "name": "alarm1",
      "outputs": [
        {
          "internalType": "uint256",
          "name": "",
          "type": "uint256"
        }
      ],
      "stateMutability": "view",
      "type": "function"
    },
    {
      "inputs": [],
      "name": "alarm2",
      "outputs": [
        {
          "internalType": "uint256",
          "name": "",
          "type": "uint256"
        }
      ],
      "stateMutability": "view",
      "type": "function"
    },
    {
      "inputs": [
        {
          "internalType": "address",
          "name": "_newOwner",
          "type": "address"
        }
      ],
      "name": "changeOwner",
      "outputs": [],
      "stateMutability": "nonpayable",
      "type": "function"
    },
    {
      "inputs": [],
      "name": "getTimestamp",
      "outputs": [
        {
          "internalType": "uint256",
          "name": "",
          "type": "uint256"
        }
      ],
      "stateMutability": "view",
      "type": "function"
    },
    {
      "inputs": [
        {
          "internalType": "uint256",
          "name": "_alarm1",
          "type": "uint256"
        }
      ],
      "name": "initialize",
      "outputs": [],
      "stateMutability": "nonpayable",
      "type": "function"
    },
    {
      "inputs": [],
      "name": "owner",
      "outputs": [
        {
          "internalType": "address",
          "name": "",
          "type": "address"
        }
      ],
      "stateMutability": "view",
      "type": "function"
    },
    {
      "inputs": [
        {
          "internalType": "uint256",
          "name": "_timestamp",
          "type": "uint256"
        }
      ],
      "name": "setAlarm1",
      "outputs": [],
      "stateMutability": "nonpayable",
      "type": "function"
    },
    {
      "inputs": [
        {
          "internalType": "uint256",
          "name": "_timestamp",
          "type": "uint256"
        }
      ],
      "name": "setAlarm2",
      "outputs": [],
      "stateMutability": "nonpayable",
      "type": "function"
    }
  ],
  "bytecode": {
    "object": "0x608060405234801561001057600080fd5b506101ba806100206000396000f3fe608060405234801561001057600080fd5b50600436106100885760003560e01c8063a6f9dae11161005b578063a6f9dae1146100e3578063b2a1974714610115578063e744bf4d14610128578063fe4b84df1461012857600080fd5b806306c24bd71461008d5780631236c069146100a9578063188ec356146100b25780638da5cb5b146100b8575b600080fd5b61009660015481565b6040519081526020015b60405180910390f35b61009660025481565b42610096565b6000546100cb906001600160a01b031681565b6040516001600160a01b0390911681526020016100a0565b6101136100f136600461013b565b600080546001600160a01b0319166001600160a01b0392909216919091179055565b005b61011361012336600461016b565b600255565b61011361013636600461016b565b600155565b60006020828403121561014d57600080fd5b81356001600160a01b038116811461016457600080fd5b9392505050565b60006020828403121561017d57600080fd5b503591905056fea2646970667358221220bacf690446c65709c46d7828d1be7d3a9d8a23058887561215617ae2700cc41864736f6c63430008110033",
    "linkReferences": {}
  },
  "methodIdentifiers": {
    "alarm1()": "06c24bd7",
    "alarm2()": "1236c069",
    "changeOwner(address)": "a6f9dae1",
    "getTimestamp()": "188ec356",
    "initialize(uint256)": "fe4b84df",
    "owner()": "8da5cb5b",
    "setAlarm1(uint256)": "e744bf4d",
    "setAlarm2(uint256)": "b2a19747"
  },
  "id": 21
}