{
  "abi": [
    {
      "inputs": [
        {
          "internalType": "address",
          "name": "_user1",
          "type": "address"
        },
        {
          "internalType": "address",
          "name": "_user2",
          "type": "address"
        }
      ],
      "stateMutability": "nonpayable",
      "type": "constructor"
    },
    {
      "anonymous": false,
      "inputs": [
        {
          "indexed": false,
          "internalType": "address",
          "name": "from",
          "type": "address"
        },
        {
          "indexed": false,
          "internalType": "uint256",
          "name": "amount",
          "type": "uint256"
        }
      ],
      "name": "Receive",
      "type": "event"
    },
    {
      "anonymous": false,
      "inputs": [
        {
          "indexed": false,
          "internalType": "address",
          "name": "to",
          "type": "address"
        },
        {
          "indexed": false,
          "internalType": "uint256",
          "name": "amount",
          "type": "uint256"
        }
      ],
      "name": "Send",
      "type": "event"
    },
    {
      "inputs": [
        {
          "internalType": "address",
          "name": "to",
          "type": "address"
        },
        {
          "internalType": "uint256",
          "name": "amount",
          "type": "uint256"
        }
      ],
      "name": "send",
      "outputs": [],
      "stateMutability": "payable",
      "type": "function"
    },
    {
      "inputs": [],
      "name": "user1",
      "outputs": [
        {
          "internalType": "address",
          "name": "",
          "type": "address"
        }
      ],
      "stateMutability": "view",
      "type": "function"
    },
    {
      "inputs": [],
      "name": "user2",
      "outputs": [
        {
          "internalType": "address",
          "name": "",
          "type": "address"
        }
      ],
      "stateMutability": "view",
      "type": "function"
    },
    {
      "stateMutability": "payable",
      "type": "receive"
    }
  ],
  "bytecode": {
    "object": "0x608060405234801561001057600080fd5b506040516103bb3803806103bb83398101604081905261002f9161007c565b600080546001600160a01b039384166001600160a01b031991821617909155600180549290931691161790556100af565b80516001600160a01b038116811461007757600080fd5b919050565b6000806040838503121561008f57600080fd5b61009883610060565b91506100a660208401610060565b90509250929050565b6102fd806100be6000396000f3fe6080604052600436106100385760003560e01c8063ac1717b01461007c578063b9edb1af146100b8578063d0679d34146100d857600080fd5b3661007757604080513381523460208201527fd6717f327e0cb88b4a97a7f67a453e9258252c34937ccbdd86de7cb840e7def3910160405180910390a1005b600080fd5b34801561008857600080fd5b5060005461009c906001600160a01b031681565b6040516001600160a01b03909116815260200160405180910390f35b3480156100c457600080fd5b5060015461009c906001600160a01b031681565b6100eb6100e636600461028f565b6100ed565b005b6000546001600160a01b031633148061011057506001546001600160a01b031633145b61016c5760405162461bcd60e51b815260206004820152602260248201527f6f6e6c79207573657231206f722075736572322063616e2073656e642065746860448201526132b960f11b60648201526084015b60405180910390fd5b804710156101b35760405162461bcd60e51b8152602060048201526014602482015273696e73756666696369656e742062616c616e636560601b6044820152606401610163565b6000826001600160a01b03168260405160006040518083038185875af1925050503d8060008114610200576040519150601f19603f3d011682016040523d82523d6000602084013e610205565b606091505b50509050806102485760405162461bcd60e51b815260206004820152600f60248201526e1d1c985b9cd9995c8819985a5b1959608a1b6044820152606401610163565b604080516001600160a01b0385168152602081018490527f30a3c50752f2552dcc2b93f5b96866280816a986c0c0408cb6778b9fa198288f910160405180910390a1505050565b600080604083850312156102a257600080fd5b82356001600160a01b03811681146102b957600080fd5b94602093909301359350505056fea2646970667358221220ad35ae185aaa4aee6e22a02c4b9fbe8a981555ab9ac9792cb9fe8a33ebaf82bb64736f6c63430008130033",
    "linkReferences": {}
  },
  "methodIdentifiers": {
    "send(address,uint256)": "d0679d34",
    "user1()": "ac1717b0",
    "user2()": "b9edb1af"
  },
  "id": 2
}