{
  "abi": [
    {
      "inputs": [
        {
          "internalType": "address",
          "name": "_user1",
          "type": "address"
        },
        {
          "internalType": "address",
          "name": "_user2",
          "type": "address"
        }
      ],
      "stateMutability": "nonpayable",
      "type": "constructor"
    },
    {
      "anonymous": false,
      "inputs": [
        {
          "indexed": false,
          "internalType": "address",
          "name": "from",
          "type": "address"
        },
        {
          "indexed": false,
          "internalType": "uint256",
          "name": "amount",
          "type": "uint256"
        }
      ],
      "name": "Receive",
      "type": "event"
    },
    {
      "inputs": [],
      "name": "user1",
      "outputs": [
        {
          "internalType": "address",
          "name": "",
          "type": "address"
        }
      ],
      "stateMutability": "view",
      "type": "function"
    },
    {
      "inputs": [],
      "name": "user2",
      "outputs": [
        {
          "internalType": "address",
          "name": "",
          "type": "address"
        }
      ],
      "stateMutability": "view",
      "type": "function"
    },
    {
      "stateMutability": "payable",
      "type": "receive"
    }
  ],
  "bytecode": {
    "object": "0x608060405234801561001057600080fd5b506040516101b83803806101b883398101604081905261002f9161007c565b600080546001600160a01b039384166001600160a01b031991821617909155600180549290931691161790556100af565b80516001600160a01b038116811461007757600080fd5b919050565b6000806040838503121561008f57600080fd5b61009883610060565b91506100a660208401610060565b90509250929050565b60fb806100bd6000396000f3fe608060405260043610602a5760003560e01c8063ac1717b014606d578063b9edb1af1460a757600080fd5b36606857604080513381523460208201527fd6717f327e0cb88b4a97a7f67a453e9258252c34937ccbdd86de7cb840e7def3910160405180910390a1005b600080fd5b348015607857600080fd5b50600054608b906001600160a01b031681565b6040516001600160a01b03909116815260200160405180910390f35b34801560b257600080fd5b50600154608b906001600160a01b03168156fea264697066735822122078dbf19b7fee80d7a49fae391e481fc8e3ded16424fe47653e912043135f324e64736f6c63430008130033",
    "linkReferences": {}
  },
  "methodIdentifiers": {
    "user1()": "ac1717b0",
    "user2()": "b9edb1af"
  },
  "id": 1
}